:1000000012C02CC02BC02AC029C028C03AC026C0AC
:1000100025C024C023C022C021C020C095C01EC05E
:100020001DC01CC01BC011241FBECFE5D4E0DEBF25
:10003000CDBF10E0A0E6B0E0E0E7FAE002C0059036
:100040000D92AA37B107D9F710E0AAE7B0E001C0D6
:100050001D92A638B107E1F79AD008C5D1CF3E9AD4
:1000600086B18F6C86B980E090E008959BBD8ABD13
:1000700089B7806189BF8EB58C608EBD80E090E0CD
:1000800008951F920F920FB60F9211242F933F9352
:100090008F939F9380918400909185000196909317
:1000A0008500809384008091820090918300019666
:1000B000909383008093820080917A0090917B00DE
:1000C000019690937B0080937A0020918400309178
:1000D000850080917500909176002817390744F0CB
:1000E000109285001092840088B391E0892788BB24
:1000F0002091820030918300809177009091780068
:100100002817390744F0109283001092820088B3B8
:1001100092E0892788BB80917A0090917B008A3F8A
:10012000910549F410927B0010927A0087B191E01A
:10013000892787B9369A9F918F913F912F910F9080
:100140000FBE0F901F9018951F920F920FB60F922F
:1001500011248F939F9381E090E09093810080938E
:100160008000389B07C084B195B190937F00809345
:100170007E0006C084B195B190937D0080937C0091
:100180009F918F910F900FBE0F901F9018952F92F7
:100190003F924F925F926F927F928F929F92AF9217
:1001A000BF92CF92DF92EF92FF920F931F93DF9354
:1001B000CF93CDB7DEB76A970FB6F894DEBF0FBE08
:1001C000CDBF87B3836087BB67D18DE790E09BBDD0
:1001D0008ABD89B7806189BF8EB58C608EBD3E9A1D
:1001E00086B18F6C86B9789480E841D1F2D080E6F0
:1001F00090E031D182E83BD18D8B8AE838D18E8B6B
:100200008091800090918100892BD1F3C0907C0077
:10021000D0907D0000917C0010917D00A0907C002A
:10022000B0907D0080907C0090907D0060907C007C
:1002300070907D0040907E0050907F00E0907E00A6
:10024000F0907F0020907E0030907F0020917E0013
:1002500030917F003A8F298F80917E0090917F00AE
:10026000988F8F8B109281001092800080917C007B
:1002700090917D0033E0959587953A95E1F7A6E951
:10028000B0E0A81BB90BB0937600A09375008091E5
:100290007E0090917F0023E0959587952A95E1F760
:1002A00026E930E0281B390B309378002093770043
:1002B0008D898FD000D000D000D0EDB7FEB7319639
:1002C00021E030E02C0F3D1FADB7BEB712963C9336
:1002D0002E93119781E790E093838283159507957C
:1002E000CC0CDD1CCC0CDD1C0C0D1D1DB594A79495
:1002F000B594A7940A0D1B1D63E0959487946A95A5
:10030000E1F7080D191D660C672C661C7708060DB1
:10031000171D15830483E4D0ADB7BEB716960FB68C
:10032000F894BEBF0FBEADBFCE01019694D08E89AA
:1003300050D000D000D000D0EDB7FEB7319621E00C
:1003400030E02C0F3D1FADB7BEB712963C932E93F5
:10035000119781E790E093838283F594E794440CAE
:10036000551C440C551CE40CF51C3594279435940D
:100370002794E20CF31CA98DBA8D93E0B595A7954F
:100380009A95E1F7EA0EFB1E2F89388D220F232F55
:10039000221F330BE20EF31EF582E482A1D08DB74B
:1003A0009EB706960FB6F8949EBF0FBE8DBFCE01C6
:1003B000019651D025CF01C000006150710981091B
:1003C0009109D0F708958FEF81BB84B3806384BB1C
:1003D000089582BBAC98AD9A80E090E001C0000027
:1003E00001962EE381389207D1F7AD9880E090E036
:1003F00001C0000001962EE381389207D1F70895DD
:10040000582F12BA40E891E020E030E0842F852395
:1004100019F082B3892B82BB2F5F3F4F2830310503
:1004200019F04695990FF2CF85B3806385BB80E0C4
:1004300090E001C0000001962DE781309207D1F7CE
:10044000AD9880E090E001C0000001962DE781307A
:100450009207D1F70895CF93DF93EC0102C0D0DF6C
:10046000219688818823D9F7DF91CF910895682F4D
:10047000606850E841E020E030E090E0852F86237E
:1004800009F0942B2F5F3F4F2830310519F0569516
:10049000440FF4CF892F08958FEF81BB84B380631D
:1004A00084BB80E899EAA3E0B0E001C000000197B6
:1004B000A109B109D8F78CE18CDF80E898E3A1E0CD
:1004C000B0E001C000000197A109B109D8F78CE1A3
:1004D00080DF80E37EDF80E87CDF80E67ADF0895DE
:1004E000AEE0B0E0E5E7F2E098C20D891E8986E053
:1004F0008C831A8309838FEF9FE79E838D839E01F0
:10050000275E3F4FCE0101966F89788DA90109D0F2
:100510002F813885020F131FF80110822E96E4E018
:1005200098C2ABE0B0E0E6E9F2E069C23C012B0121
:100530005A01FC0117821682838181FD03C06FEF8F
:100540007FEFB9C19AE0892E1E010894211C311C4D
:10055000F3012381F20123FD859123FF81912F0176
:10056000882309F4A5C1853239F423FD859123FF41
:1005700081912F01853221F490E0B301B6D1E8CF0B
:10058000982FFF24EE249924FFE1FF15D0F09B3231
:1005900069F09C3228F4903259F0933291F40EC0F5
:1005A0009D3249F0903369F441E024C052E0F52ACD
:1005B00084E0F82A28C098E0F92A25C0E0E1FE2A64
:1005C00022C0F7FC29C0892F80538A3070F4F6FED0
:1005D00005C0989C902C1124980E15C0E89CE02C26
:1005E0001124E80EF0E2FF2A0EC09E3229F4F6FC38
:1005F0005FC140E4F42A07C09C3619F450E8F52A9C
:1006000002C0983649F4F20123FD959123FF9191A0
:100610002F01992309F0B8CF892F8554833018F022
:100620008052833038F444E050E0A40EB51E5FE3FE
:1006300059830FC0933631F0933779F0933509F031
:1006400052C01FC0F5018081898342E050E0A40EB2
:10065000B51E610101E010E011C0F501C080D1803C
:10066000F6FC03C06FEF7FEF02C0692D70E042E03F
:1006700050E0A40EB51EC6012DD18C015FE7F52216
:1006800013C0F501C080D180F6FC03C06FEF7FEF8F
:1006900002C0692D70E042E050E0A40EB51EC60114
:1006A0000ED18C0150E8F52AF3FE06C018C080E296
:1006B00090E0B3011AD1EA948E2D90E00817190743
:1006C000B0F30DC0F601F7FC8591F7FE81916F0143
:1006D00090E0B3010AD1E110EA94015010400115F5
:1006E000110581F7E2C0943611F0993661F5F7FEF5
:1006F00008C0F501208131814281538184E090E07E
:100700000AC0F501808191819C01442737FD409505
:10071000542F82E090E0A80EB91E9FE6F92257FF01
:1007200009C050954095309521953F4F4F4F5F4FF1
:10073000E0E8FE2ACA01B901A1012AE030E001D1B6
:10074000D82ED2183FC0953729F41F2D1F7E2AE0DE
:1007500030E01DC01F2D197F9F3661F0903720F4C7
:10076000983509F0A5C00FC0903739F0983709F0D7
:100770009FC004C028E030E00AC0106114FD14607E
:1007800020E130E004C014FD166020E132E017FFE4
:1007900008C0F501608171818281938144E050E05D
:1007A00008C0F50180819181BC0180E090E042E0C9
:1007B00050E0A40EB51EA101C4D0D82ED2188FE7E8
:1007C000F82EF122F6FE0BC05EEFF522D91438F4B4
:1007D000F4FE07C0F2FC05C08FEEF82202C01D2D0A
:1007E00001C0192DF4FE0DC0FE01ED0DF11D80813B
:1007F000803319F499EEF92208C01F5FF2FE05C09C
:1008000003C08F2D867809F01F5F0F2DF3FC13C0F6
:10081000F0FE0EC01E1510F09D2C0AC09D2C9E0CE3
:10082000911A1E2D05C080E290E0B3015ED01F5FDB
:100830001E15C8F304C01E1510F4E11A01C0EE2401
:1008400004FF0EC080E390E0B3014FD002FF1BC055
:1008500001FD03C088E790E00EC088E590E00BC082
:10086000802F867881F001FF02C08BE201C080E218
:10087000F7FC8DE290E0B30138D005C080E390E052
:10088000B30133D09A94D914C8F3DA94F101ED0D81
:10089000F11D808190E0B30128D0DD20B1F705C0C3
:1008A00080E290E0B30121D0EA94EE20C9F750CE67
:1008B000F30166817781CB012B96E2E1BCC0FC019C
:1008C0000590615070400110D8F7809590958E0F7B
:1008D0009F1F0895FC016150704001900110D8F7EE
:1008E000809590958E0F9F1F08950F931F93CF9320
:1008F000DF938C01EB018B8181FF1BC082FF0DC058
:100900002E813F818C819D812817390764F4E8810D
:10091000F9810193F983E88306C0E885F985802F82
:100920000995892B31F48E819F8101969F838E8357
:1009300002C00FEF1FEFC801DF91CF911F910F9100
:100940000895FA01AA27283051F1203181F1E89465
:100950006F936E7F6E5F7F4F8F4F9F4FAF4FB1E0B2
:100960003ED0B4E03CD0670F781F891F9A1FA11DAD
:10097000680F791F8A1F911DA11D6A0F711D811DAE
:10098000911DA11D20D009F468943F912AE0269F73
:1009900011243019305D3193DEF6CF010895462FD2
:1009A0004770405D4193B3E00FD0C9F7F6CF462FB3
:1009B0004F70405D4A3318F0495D31FD405241931C
:1009C00002D0A9F7EACFB4E0A695979587957795D9
:1009D0006795BA95C9F700976105710508959B0160
:1009E000AC010A2E06945795479537952795BA95E9
:1009F000C9F7620F731F841F951FA01D08952F92C2
:100A00003F924F925F926F927F928F929F92AF929E
:100A1000BF92CF92DF92EF92FF920F931F93CF93EB
:100A2000DF93CDB7DEB7CA1BDB0B0FB6F894DEBF82
:100A30000FBECDBF09942A88398848885F846E84A8
:100A40007D848C849B84AA84B984C884DF80EE80F2
:100A5000FD800C811B81AA81B981CE0FD11D0FB6FB
:100A6000F894DEBF0FBECDBFED010895F894FFCF1F
:100A7000303A202020206D56313A202020206D561B
:0A0A80000025346400E803E80300D9
:00000001FF
