:1000000012C02CC02BC02AC029C028C027C026C0BF
:1000100025C024C023C022C021C020C01FC01EC0D4
:100020001DC01CC01BC011241FBECFE5D4E0DEBF25
:10003000CDBF10E0A0E6B0E0E4E9F0E002C005903A
:100040000D92A036B107D9F710E0A0E6B0E001C0EC
:100050001D92A036B107E1F709D01AC0D1CF80E0D8
:1000600090E001C000000197E9F70895A59AAD9AC4
:1000700080E090E001C000000197E9F785B38F753B
:1000800085BB80E090E001C000000197E9F7EFCF69
:04009000F894FFCF12
:00000001FF
